:03000000020006F5
:03005F0002000399
:0300030002008078
:2000620090FB50A3E582458370F922AE82AF831EBEFF011FEE4F600512006280F22290E6C9
:20008200007410F043B2064380025380FD6380026380049003E812006D6380026380049038
:0700A20003E812006D80E687
:06003500E478FFF6D8FD9F
:200013007900E94400601B7A009000AD780175A000E493F2A308B8000205A0D9F4DAF275E6
:02003300A0FF2C
:20003B007800E84400600A790175A000E4F309D8FC7800E84400600C7900900001E4F0A3C3
:04005B00D8FCD9FAFA
:0D0006007581071200A9E582600302000366
:0400A900758200223A
:00000001FF
