:04000000020059326F
:01000B0032C2
:0100130032BA
:01001B0032B2
:0100230032AA
:01002B0032A2
:01003300329A
:01003B003292
:03004300023F0079
:01004B003282
:03005300023F0069
:0300B200750B01CA
:0300C700020056DE
:030056000200CADB
:2000CA0090E60BE4F0C200C20190E60B7403F090E680E043E00AF09005DC120D8790E68054
:2000EA00E053E0F7F090E600E054E74410F090E100E4F5F0120C89A280E433FF8FF005F09A
:20010A007401800225E0D5F0FBFFA281E433FE8EF005F07401800225E0D5F0FBFE4F42B272
:20012A00D2E890E668E043E008F090E65CE043E001F090E65CE043E010F090E65CE043E0B2
:20014A0020F0D2AF3000FD120857C20080F675820022AF8290E6BBE0FD7E0090E6BAE07BCD
:20016A00004206EB420590E6BFE0FB7C0090E6BEE07A004204EA42038F017A00C007C006D5
:20018A00C005C004C003C004C003C006C005C001C0027447C0E07416C0E07480C0E0120E3B
:2001AA0001E58124F7F581D003D004D005D006D007BFB1028009BFB2030202BC02038590CB
:2001CA00E6B8E0FFBF40028073BFC002800302029FEC4B70030202A3C374409CE49B5006C4
:2001EA007A407F0080048C028B0790E6A0E020E1F98A457546007547407548E77549008EB2
:20020A00438D44758251C006C005C004C003C0021207F3D002D003D004D005D00690E68A74
:20022A00E4F00000000090E68BEAF07F00ECC39AFCEB9FFBEA2EFEEF3DFD8095EC4B605978
:20024A0090E68BE4F090E6A0E020E1F990E68BE0FF8F38753900753A40753BE7753C008EB5
:20026A00368D37758251C007C006C005C004C003120763E582D003D004D005D006D00770DD
:20028A0003F582227A00EF2EFEEA3DFDECC39FFCEB9AFB80A7758200227474C0E07416C023
:2002AA00E07480C0E0120E011581158115817582012290E6B8E0FFBF4002800302037D9020
:2002CA00E68BE4F090E6A0E020E1F990E68BE0FE7F00C007C006747CC0E07416C0E0748046
:2002EA00C0E0120E01158115811581D006D0077C007D00C3EC9EED64808FF063F08095F0D6
:20030A00503EEC2440F582ED34E7F583E0FB7A00C007C006C005C004C003C0027483C0E077
:20032A007416C0E07480C0E0120E01E58124FBF581D004D005D006D0070CBC00B60D80B3C5
:20034A00748BC0E07416C0E07480C0E0120E0115811581158190E740E0FFBF0104D2808027
:20036A0002C28090E741E0FFBF0104D2818008C2818004758200227582012275820022AD39
:20038A0019AE1AAF1B8D828E838FF0E4120C5775820122AE0A7F00C006C007748DC0E074BD
:2003AA0016C0E07480C0E0120E01E58124FBF58175820122850B8222AF828F057E00C00775
:2003CA00C005C00674AEC0E07416C0E07480C0E0120E01E58124FBF581D0078F0B75820183
:2003EA0022C0E0C082C083D2005391EF90E65D7401F0D083D082D0E032C021C0E0C0F0C057
:20040A0082C083C007C006C005C004C003C002C001C000C0D075D000758200120B555391CF
:20042A00EF90E65D7410F0D0D0D000D001D002D003D004D005D006D007D083D082D0F0D00B
:20044A00E0D02132C021C0E0C0F0C082C083C007C006C005C004C003C002C001C000C0D02D
:20046A0075D000758201120B555391EF90E65D7420F0D0D0D000D001D002D003D004D0050A
:0F048A00D006D007D083D082D0F0D0E0D021327E
:2016470048616E646C652056656E646F7220436F6D6D616E6420253032782C2061646472C4
:201667002025642C206C656E2025640A00416C6C204F4B0A00446174613A200030782530CE
:20168700327820000A00486F73742077616E747320746F2073657420696E746572666163A9
:1E16A700653A2025640A00686F73742077616E747320636F6E6669673A2025640A0045
:203E000012010002FFFFFF40B40483000100000100010A060002FFFFFF40010009023C007B
:203E200001010080320904000006FFFFFF000705010200020007058102000200070502020C
:203E400000020007050402000200070586020002000705880200020009023C000101008055
:203E6000320904000006FFFFFF00070501024000000705810240000007050202400000078B
:203E80000504024000000705860240000007058802400000040309041203550073006200DA
:0C3EA00020005400650072006D0000005E
:2004990085822CE5272522FDE5283523FE903C00E4F0752D02903C00E06004758200229060
:2004B900E678E043E080F090E678E030E21090000AC006C005120D87D005D00680D7E52C84
:2004D90025E0FB90E679F090E678E020E006903C00E060F3903C00E060047582002290E6B2
:2004F90078E020E2B090E678E020E13790E678E043E040F090E678E030E606903C00E060BC
:20051900F3903C00E0600475820022D52D047582002290000AC006C005120D87D005D00611
:200539000204AE7A007B00C3EA9DEB9E40030205D1C3EA9522EB95235016EA2524F8EB3553
:2005590025F9AF26888289838FF0121546FF801DEAC39522F8EB9523F9E82529F8E9352A83
:20057900F9AC2B888289838CF0121546FF90E679EFF00ABA00010B90E678E020E006903C56
:2005990000E060F3903C00E060047582002290E678E030E2030204AE90E678E020E1889068
:2005B900E678E043E040F090E678E030E606903C00E060F37582002290E678E043E040F06E
:2005D90090E678E030E606903C00E060F3903C00E060047582002275820122858233903CD0
:2005F90000E4F004B52E0814B52F0474018001E4FE903C00E06004758200227C007D009099
:20061900E678E043E080F090E678E030E20C90000AC006120D87D00680D7E53325E0FB9029
:20063900E67974014BF090E678E020E006903C00E060F3903C00E060047582002290E678A8
:20065900E020E2AD90E678E020E11990E678E043E040F090E678E030E606903C00E060F300
:2006790075820022EE600890E678E043E020F090E679E0E4F534F53574012534F8E43535D7
:20069900F9C3E8952EE9952F506590E678E020E006903C00E060F3903C00E060047582009E
:2006B9002290E678E030E20302060A74022534F8E43535F9E8B52E0CE9B52F0890E678E082
:2006D90043E020F0A834A9350534E4B534020535AC34AD35E82530F8E93531F9AF3290E63C
:2006F90079E0FB888289838FF0120C5702069190E678E020E006903C00E060F3903C00E06B
:2007190060047582002290E678E030E20302060A90E678E043E040F0EC2530FCED3531FDA0
:20073900AF3290E679E08C828D838FF0120C5790E678E030E606903C00E060F3903C00E049
:200759006004758200227582012285823DE4F541F542AB36AC37C3E5419538E54295395095
:20077900757A0090E678E030E4067A018C078F3EEA04FFEA243EF98B02A702EF04FAEF2446
:200799003EF9E541253AFDE542353BFEAF3C0541E4B5410205428D828E838FF0121546F79B
:2007B9008A2275230075243E752500752640E4F527F528F529F52AF52B853D82C004C0034B
:2007D900120499E582D003D0047003F582220BBB00010C02076F75820122AF827E0090E6AD
:2007F90078E030E4067E01AD448D4AEE04FDEE244AF9AE43A7068D2275230075244A752581
:2008190000752640E4F527F528F529F52AF52B8F82C007120499E582D0077003F582228514
:1E083900452E85462F8547308548318549328F821205F4E5827003F582227582012291
:06008800E478FFF6D8FD4C
:1200B500750D00750E00750F5875103E75111C75123E2E
:2008570090E6B9E0FF24F45003020957EF240A83F582EF241083F583E473899E57B357573B
:20087700C857D8EF06390808090809090809080809091209CDE582600302096C90E6A0E0B7
:2008970043E001F002096C120A61E582600302096C90E6A0E043E001F002096C120AD0E5A6
:2008B70082600302096C90E6A0E043E001F002096C120158E582600302096C120B800209F0
:2008D7006C1203BEAF8290E740EFF090E68AE4F090E68B04F002096C90E6BAE0F58212031F
:2008F700C2E582707090E6A0E043E001F0806690E6BCE0FF75190C751A00751B408F8212BB
:200917000389E582700A90E6A0E043E001F0804590E740E50CF090E68AE4F090E68B04F023
:20093700803390E6BCE0FF90E6BAE0F50A8F8212039DE582701F90E6A0E043E001F0801575
:2009570090E6B9E0F58212015CE582700890E6A0E043E001F090E6A0E043E080F022AF82C6
:20097700747F5FFE24F750030209C9EE240A83F582EE240D83F583E473A2A6B9C9BDC9C136
:20099700C9C509090909090909090990E6A022EF30E7067EA27FE680047EA17FE68E828FF1
:2009B700832290E6A32290E6A42290E6A52290E6A6229000002290E6B8E0FFBF80028022E7
:2009D700BF81028008BF82028037020A5990E740E4F090E741F090E68AF090E68B7402F04D
:2009F7008064E50E25E0FFE50D420790E740EFF090E741E4F090E68AF090E68B7402F080D1
:200A17004590E6BCE0F582120975AE82AF838E048F05EE4F7003F582228C828D83E0FC3066
:200A3700E0067E017F0080047E007F0090E740EEF090E741E4F090E68AF090E68B7402F0C2
:200A57008004758200227582012290E6B8E0FF6005BF0258801B90E6BAE0FFBF0105750E4B
:200A770000805290E6BAE0FFBF060280487582002290E6BAE0703190E6BCE0F5821209750C
:200A9700AE82AF83E0FD5305FE8E828F83EDF090E6BCE0FF30E70343071053071F90E683B4
:200AB700EFF074204FF0800D7582002290E6B9E0F58202015C7582012290E6B8E0FF600556
:200AD700BF026E802690E6BAE0FFBF0203020B5190E6BAE0FFBF0105750E01805D90E6BA94
:200AF700E0FFBF060280537582002290E6BAE0703C90E6BCE0F582120975AE82AF83EE4FD9
:200B17007003F582228E828F83E0FD4305018E828F83EDF090E6BCE0FF30E7034307105393
:200B3700071F90E683EFF074204FF0800D7582002290E6B9E0F58202015C75820122AF82F7
:200B5700D20210AF02C202EF600E750F1C75103E75115875123E800C750F5875103E751111
:200B77001C75123EA20292AF2290E6BBE0FFBF01028019BF02028024BF0302802CBF06036C
:200B9700020C31BF0703020C41020C4E7E007F3E90E6B3EFF090E6B47400F02290E6B3E58A
:200BB70010F090E6B4E50FF0227D947E3E7F8090E6BAE0F5197B00EBB5190280430B8D0073
:200BD7008E018F028D828E838FF012154628F8E439F9880589068A0774012DF9E43EFA8FA9
:200BF7000489828A838CF0121546F9B9030280067D007E007F00ED4E6006C3E5199B50B71E
:200C1700ED4E600D8E0490E6B3ECF090E6B4EDF02290E6A0E043E001F0227E127F3E90E666
:200C3700B3EFF090E6B47412F02290E6B3E512F090E6B4E511F02290E6A0E043E001F022DB
:200066007900E94400601B7A009016D0780175923CE493F2A308B800020592D9F4DAF2753A
:0200860092FFE7
:1B0C570020F71130F6138883A88220F509F6A8837583002280FEF280F5F0229C
:203F00000203EB00021645000215D40002163E000204030002044E000215D100020C7D0043
:203F2000020C7F00020C8000020C8100020C84000216440002164600020C7200020C740089
:203F40000215D600020C7D000215D0000215D2000215D3000215D5000215D70002163D0000
:203F600002151000020C7D00020C7D00020C7D00020C7E00020C8200020C8500020C870035
:203F8000020C8300020C8600020C8800020DD800020C7500020C7700020C7900020C7B0067
:183FA000020C7600020C7800020C7A00020C7C00020C73000216430011
:010C7200324F
:010C7300324E
:010C7400324D
:010C7500324C
:010C7600324B
:20008E007800E84400600A790075923CE4F309D8FC7801E84400600C7901903C00E4F0A306
:0400AE00D8FCD9FAA7
:010C7700324A
:010C78003249
:010C79003248
:010C7A003247
:010C7B003246
:010C7C003245
:010C7D003244
:010C7E003243
:010C7F003242
:010C80003241
:010C81003240
:010C8200323F
:010C8300323E
:010C8400323D
:010C8500323C
:010C8600323B
:010C8700323A
:010C88003239
:200C8900D310AF01C3C0D085821385831485F015F51690E600E05418C423541F70057A018E
:200CA900FB801C90E600E05418C423541FF9B901067802790080047804790088028903D26B
:200CC900CDD2CC8A19751A00751B00751C009071B075F00BE4C00212156285131985141A99
:200CE90085151B85161C1215D8AC82AD83AEF0FFD0020CBC00090DBD00050EBE00010FEF48
:200D0900C313EE13ED13FDEC13FC74FFC39CFC74FF9DFD8DCBEA60067E017F0080047E0078
:200D29007F00EE2CF5CAD2CAC29FD29EC29DD29C438780D299D0D092AF223098FDAF99C291
:200D4900987E008F828E8322AF8210990280FB8F9922AF82BF0A0A75820DC007120D51D080
:1E0D6900078F82C007120D51D007BF0D0A75820AC007120D51D0077E008F828E83229F
:200D8700AE82AF8390E600E05418C423541F70057CB1FD801C90E600E05418C423541FFB7C
:200DA700BB01067A617B0180047AC27B028A048B058C198D1AE51924FFFAE51A34FFFB8A9A
:110DC700198B1AEA4B70EE1EBEFF011FEE4F70E1221F
:010DD80032E8
:200DD900C0188581187E008E83120D5BD0182285825C85835D85F05EE4F559F55AF55B8500
:200DF900175F900DD9020EC2C018E581F51824FBFF8F5FE4F559F55AF55BE51824FBF8865A
:100E19005C08865D08865E900DD9120EC2D0182234
:200E2900AF82C04FC050C051120E368007C04DC04E8F82221581158115810557E4B557020D
:200E4900055822AF8274302FFF24C6500B74072FFFE54C60034307208F82020E29E582FF6B
:200E6900C4540FF582C007120E4CD007740F5FF582020E4C858219AB52AC53AD54AE55AA42
:200E890056751B208A07EF2FF51AEE235401451AFAEB2BFBEC33FCED33FDEE33FEC3EA951C
:200EA900194008EAC39519FA430301D51BD68B528C538D548E558A562285824D85834E85B5
:200EC900594F855A50855B51E4F557F558AD5CAE5DAF5E8D828E838FF0121546FC74012DB9
:200EE900F55CE43EF55D8F5EECFF7003021509BF25028003021501E4F560F561F562F563FA
:200F0900F564F565F566F567F569F576F577756AFF756BFF855C70855D71855E72857082FC
:200F29008571838572F0121546F573A385827085837185705C85715D85725E7425B573081E
:200F4900857382120E29808574D025735068E57324C6406274FFB56A36B56B338576198594
:200F6900771A90000A121529858274858375AA737E00EA2574FAEE3575FEEA24D0F576EE10
:200F890034FFF577E57645777093756101808E856A19856B1A90000A121529AE82AB83AAA6
:200FA900737D00EA2EFEED3BFBEE24D0F56AEB34FFF56B020F26742EB5731574FFB56A0593
:200FC900B56B028003020F26E4F56AF56B020F26749F2573500EE573248540085373DF75E6
:200FE9004C018003754C007420B5730302108C742BB57303021086742DB57302807974421E
:20100900B573030210927443B5730302109E7444B573030212227446B5730302123974485F
:20102900B57303020F267449B57303021222744AB57303020F26744CB573028052744FB5D3
:20104900730302122A7450B573030211B77453B5730280627454B57303020F267455B5732C
:201069000302122F7458B57303021234745AB57303020F2602123E756001020F267562017B
:20108900020F26756301020F26756501020F26756601020F26E565600AE55F14F9895F8767
:2010A90006800BE55F24FEFB8B5F8B0187068E82120E2902124CE55F24FDFE8E5F8E018713
:2010C9000209870309870619198A528B538E548A828B838EF012151185827085837174FFDB
:2010E900B56A09B56B0685706A85716BE5607037C3E5709576E5719577502CE576C39570C9
:20110900F574E5779571F575AA74AE75157474FFB574021575EA4E6008758220120E29801F
:20112900E7857476857577AB6AAE6B8552828553838554F0121546FA8A6E6034C3E49B748B
:20114900808EF063F08095F050261BBBFF011E856E82C006C003120E29D003D006AA52AC2E
:2011690053AD540ABA00010C8A528C538D5480BBE560700302124CC3E5709576E5719577CD
:20118900400302124CE576C39570F574E5779571F575AA74AE75157474FFB574021575EA6F
:2011A9004E7003021246758220120E2980E4E55F24FDFE8E5F8E018702098703098706199D
:2011C900198A528B538E54AE54BE800040047B438014BE600040047B50800BBE4000400481
:2011E9007B4980027B588B82C003120E2975823A120E29758230120E29758278120E29D042
:2012090003BB4902800BBB50028006855382120E66855282120E66802A75640175690A80F3
:2012290022756908801D75690A80187569108013756701800E857382120E298006857476DC
:20124900857577E5676060E55F24FCFE8E5F8E0187760987770987780987791919198576CF
:20126900528577538578548579557552C57553167554808552768553778554787401257670
:20128900FAE43577FBAE788A528B538E548576828577838578F0121546FEFB7003020ED656
:2012A9008B82120E2980CCE5697003020ED6E565602BE55F14F9895F87068E027B007D00B9
:2012C9007E008A528B538D548E55E5647064AA52FBFDFE8A528B538D548E558055E56660FC
:2012E90021E55F24FCFE8E5F8E0187020987030987050987061919198A528B538D548E55D6
:201309008030E55F24FEFE8E5F8E01870309870619EEFA3395E0FDFE8B528A538D548E55F2
:20132900E564700EAA52AB53FDFE8A528B538D548E55E5646023E55530E71BC3E49552FBA9
:20134900E49553FCE49554FDE49555FE8B528C538D548E558003756400756801797F7D00F7
:201369007E00755600856982C006C005C001120E7DD001D005D006E5687014E556C454F032
:20138900FCE556C4540F4204E7FB4CF7198002A7560DBD00010EE568B40100E433F568E5AF
:2013A9005245534554455570B9896F8D6C8E6DE57645777005757601F577E561702DE560E6
:2013C9007029AA76AB77AC6C0C7E00C3EC9AEE9B5015758220C003C002120E29D002D003C6
:2013E9001ABAFF011B80DF8A768B77E564601175822D120E29157674FFB576021577802E08
:20140900E56C456D6028E562601175822B120E29157674FFB5760215778013E563600F759F
:201429008220120E29157674FFB576021577E5607033AD76AE778D038E041DBDFF011EC3F4
:20144900E56C9BE56D9C503EE56160067B307C0080047B207C008B82C006C005120E29D0FC
:2014690005D00680D1C3E56C9576E56D9577500FE576C3956CF576E577956DF577800BE498
:20148900F576F57780048D768E77A96FAD6CAE6D8D028E041DBDFF011EEA4C6030E568B4B4
:2014A9000100E433F568700A09E7C4540FFC8C5680078704740F5CF556855682C006C0051B
:2014C900C001120E4CD001D005D00680C3E5607003020ED6AD76AE778D038E041DBDFF0135
:2014E9001EEB4C7003020ED6758220C006C005120E29D005D00680E08F82120E29020ED6FF
:0715090085578285588322FB
:0B16C5003C4E4F20464C4F41543E006D
:0115100032A8
:18151100AA82AB831215466003A380F8C3E5829AF582E5839BF58322A5
:1D152900E5828519F0A4C582C0F0851AF0A4D0F025F0C5838519F0A42583F5832251
:0D00590075817F12163FE58260030200569C
:1C15460020F71430F6148883A88220F507E6A88375830022E280F7E49322E022B4
:20156200AAF0FBE5828519F0A4FCADF0E5838519F0A42DFDE435F0FEE582851AF0A42DFD13
:20158200E5F03EFEE433FFEA8519F0A42EFEE5F03FFFE583851AF0A42EFEE5F03FFFE58286
:2015A200851BF0A42EFEE5F03FFFEB8519F0A42FFFEA851AF0A42FFFE583851BF0A42FFF56
:0E15C200E582851CF0A42F8EF08D838C822292
:0115D00032E8
:0115D10032E7
:0115D20032E6
:0115D30032E5
:0115D40032E4
:0115D50032E3
:0115D60032E2
:0115D70032E1
:2015D800FB7A20E4FCFDFEFFE5822582F582E58333F583E5F033F5F0EB33FB4017DAE9804C
:2015F80042E5822582F582E58333F583E5F033F5F0EB33FBEC33FCED33FDEE33FEEF33FF7B
:20161800EC9519ED951AEE951BEF951C4013EC9519FCED951AFDEE951BFEEF951CFF4382BC
:0516380001DABEEB2207
:01163D00327A
:01163E003279
:04163F00758200228E
:011643003274
:011644003273
:011645003272
:011646003271
:00000001FF
